:1000000063C600007EC600007CC600007AC6000001
:1000100078C6000076C6000074C6000072C60000F4
:1000200070C600006EC600000C949E290C946A2ACB
:100030000C94302466C6000064C6000062C600004E
:1000400060C600005EC600005CC600005AC6000024
:1000500058C600000C94A72454C6000052C60000E5
:1000600050C600004EC600004CC600004AC6000044
:1000700048C6000046C6000044C6000042C6000054
:1000800040C600003EC600003CC600003AC6000064
:1000900038C6000036C6000034C6000032C6000074
:1000A00030C600002EC600002CC6000014001A0046
:1000B00008451500174100001C4118000C001200F3
:1000C000130004001600070009000A0000000B00DE
:1000D0000D000E000F0052001D001B00060019004D
:1000E00005002C2211001000360037005100245268
:1000F000E3002252E200E0002B00E500290050005E
:100100004F0028001E0235002F023002200200009E
:100110002D00340234002402E300380221022602BA
:1001200027022E0000002D023502540023024B004E
:1001300022021F022F00300031000000330225028E
:10014000330031024E00000000000000E600E40031
:100150002B010000E6004A004D002E024000410045
:1001600042004300A90000002400250026002E02C2
:1001700055003D003E003F004400AA000000210061
:100180002200230056004B003A003B003C00450093
:10019000007C2C001E001F00200033024E00E100F6
:1001A00063520000E200E0000000E50027004A0082
:1001B0004D002800A500B200000000000000000073
:1001C0005F00600061005700550000000000000063
:1001D0000000000000005C005D005E00560054005E
:1001E000460053004700480000002C0059005A0008
:1001F0005B003302670000520000000000000000B6
:100200000000630062002A004C0058002B0100002F
:100210003D0400000000000000000000000000009D
:1002200000002B040000000000000000000000009F
:100230000000380000004B011B010000000000001E
:100240000000000059005A005B0000004E01010050
:10025000000000000000000000000000000000009E
:1002600000000000000000000000E0000A010000A3
:100270004A00500052004F004D00000000000000F6
:10028000E200000000004C000A01510000004B0099
:1002900000000000000000000000E100060118015D
:1002A000190100004E0000000000000000000000E6
:1002B0002A00140000000000000028006C65645F44
:1002C0007461736B3A20253032580A004F6E6573A3
:1002D000686F743A206163746976653A2025640A10
:1002E0000044454255473A2064697361626C656415
:1002F0002E0A0044454255473A20656E61626C659E
:10030000642E0A000A002530313662003A200025AA
:10031000303258000A722F63203031323334353690
:100320003738394142434445460A00556E69636F88
:10033000646520696E707574206D6F6465207365E7
:100340007420746F3A2025750A00556E69636F64D6
:100350006520696E707574206D6F646520696E69C3
:100360007420746F3A2025750A00313A0964656C6F
:100370006179282A31306D73293A2025750A323A7D
:1003800009696E74657276616C286D73293A20254F
:10039000750A333A096D61785F73706565643A2058
:1003A00025750A343A0974696D655F746F5F6D6114
:1003B000783A2025750A353A09776865656C5F6D6E
:1003C00061785F73706565643A2025750A363A096D
:1003D000776865656C5F74696D655F746F5F6D618B
:1003E000783A2025750A00703A097072696E742097
:1003F00076616C7565730A643A0973657420646587
:100400006661756C74730A75703A092B310A646EF3
:100410003A092D310A6C743A092B31300A72743A58
:10042000092D31300A4553432F713A0971756974AA
:100430000A0A7370656564203D2064656C746120F0
:100440002A206D61785F7370656564202A202872A8
:100450006570656174202F2074696D655F746F5FCE
:100460006D6178290A77686572652064656C7461CE
:100470003A20637572736F723D25642C207768652E
:10048000656C3D25640A53656520687474703A2F65
:100490002F656E2E77696B6970656469612E6F7266
:1004A000672F77696B692F4D6F7573655F6B657922
:1004B000730A004D3E20004D25753A25733E2000FD
:1004C0003F0A003D2025750A003F0A006465666109
:1004D000756C74730A0025750A003F0A000A092D1D
:1004E0002056616C756573202D0A00710A000A0997
:1004F0002D204D6F7573656B6579202D0A003F00C7
:10050000433E20004C25640A000A092D20537461E3
:10051000747573202D0A686F73745F6B6579626FF1
:100520006172645F6C65647328293A202530325803
:100530000A6B6579626F6172645F70726F746F636A
:100540006F6C3A20253032580A6B6579626F6172A0
:10055000645F69646C653A20253032580A6B6579AE
:100560006D61705F636F6E6669672E6E6B726F3A56
:1005700020253032580A74696D65725F7265616456
:10058000333228293A202530386C580A0025730068
:100590000A092D20436F6E736F6C65202D0A455339
:1005A000432F713A09717569740A6D3A096D6F7557
:1005B00073656B65790A000A092D204D61676963CF
:1005C000202D0A443A094465627567204D657373AE
:1005D00061676520546F67676C650A583A094D6119
:1005E00074726978204465627567204D6F64652078
:1005F000546F67676C65202D2053686F77206B659B
:10060000797072657373657320696E206D617472A1
:10061000697820677269640A4B3A094B6579626FA1
:1006200061726420446562756720546F67676C650A
:10063000202D2053686F77206B6579707265737316
:10064000207265706F72740A4D3A0944656275676D
:10065000204D6F75736520546F67676C650A563A55
:100660000956657273696F6E0A533A09537461745F
:1006700075730A433A09416374697661746520436E
:100680006F6E736F6C65204D6F64650A46312D4641
:1006900031303A0953776974636820746F204C6174
:1006A00079657220302D392028463130203D204C8C
:1006B00030290A302D393A095377697463682074F8
:1006C0006F204C6179657220302D390A47524156AE
:1006D000453A0953776974636820746F204C6179D7
:1006E000657220302028616C7465726E61746529B2
:1006F0000A423A094A756D7020746F20426F6F7418
:100700006C6F616465720A4553433A094A756D70AE
:1007100020746F20426F6F746C6F61646572202863
:10072000616C7465726E617465290A453A0950728C
:10073000696E7420454550524F4D2053657474695D
:100740006E67730A4241434B53504143453A094354
:100750006C65617220454550524F4D0A4E3A094E24
:100760004B524F20546F67676C650A006B65796D5B
:1007700061705F636F6E6669672E7261773A2025DC
:100780003032580A2E737761705F636F6E74726FC8
:100790006C5F636170736C6F636B3A2025750A2E12
:1007A000636170736C6F636B5F746F5F636F6E74A4
:1007B000726F6C3A2025750A2E737761705F6C63D7
:1007C000746C5F6C6775693A2025750A2E737761C2
:1007D000705F7263746C5F726775693A2025750A81
:1007E0002E737761705F6C616C745F6C6775693ACA
:1007F0002025750A2E737761705F72616C745F7269
:100800006775693A2025750A2E6E6F5F6775693ABC
:100810002025750A2E737761705F67726176655F58
:100820006573633A2025750A2E737761705F626184
:10083000636B736C6173685F6261636B7370616338
:10084000653A2025750A2E6E6B726F3A2025750A5F
:100850002E737761705F6573636170655F6361704C
:10086000736C6F636B3A2025750A00646562756767
:100870005F636F6E6669672E7261773A202530324A
:10088000580A2E656E61626C653A2025750A2E6DD8
:1008900061747269783A2025750A2E6B6579626FEA
:1008A0006172643A2025750A2E6D6F7573653A2062
:1008B00025750A006565636F6E6669673A0A646547
:1008C0006661756C745F6C617965723A20256C7530
:1008D0000A003F004E4B524F3A206F66660A004EA8
:1008E0004B524F3A206F6E0A000A6D6F7573653A6E
:1008F000206F66660A000A6D6F7573653A206F6E29
:100900000A000A6B6579626F6172643A206F6666ED
:100910000A000A6B6579626F6172643A206F6E0A31
:10092000000A6D61747269783A206F66660A000A7F
:100930006D61747269783A206F6E0A000A646562AC
:1009400075673A206F66660A000A64656275673AE1
:10095000206F6E0A000A0A4A756D70696E6720740E
:100960006F20626F6F746C6F616465722E2E2E2023
:1009700000433E2000436C656172696E6720454507
:1009800050524F4D0A00290A002575002F00257589
:10099000005D2800256400200025640020002564F7
:1009A0000020002564007C0025303258006D6F75F2
:1009B00073656B6579205B62746E7C782079207634
:1009C00020685D287265702F61636C293A205B0096
:1009D00000000000000000002A2B2800000000009A
:1009E00000000000000000000000002900000000DE
:1009F0002C1E3420212224342627252E362D37384C
:100A0000271E1F202122232425263333362E373854
:100A10001F0405060708090A0B0C0D0E0F10111212
:100A2000131415161718191A1B1C1D2F3130232DDE
:100A3000350405060708090A0B0C0D0E0F101112DC
:100A4000131415161718191A1B1C1D2F3130354C8D
:100A50000000000000000000000000000000000096
:100A60000000000000000000000000000000000086
:100A7000000000007E0F00D4FFFFFFC700000078D9
:100A80000A002530325820006E6B726F5F726570FD
:100A90006F72743A2025303258207C20000A0025DD
:100AA00030325820006B6579626F6172645F7265E5
:100AB000706F72743A2025303258207C20006465B3
:100AC0006C5F6B65795F6269743A2063616E27744D
:100AD0002064656C3A20253032580A006164645FF6
:100AE0006B65795F6269743A2063616E2774206177
:100AF00064643A20253032580A0073757370656E4D
:100B000064696E67206B6579626F6172640D0A00BB
:100B10005B575D005B535D005B525D005B445D00B5
:100B20005B435D000E0341007400720065007500B8
:100B300073000000180354006500630068006E0035
:100B40006F006D0061006E00630079000000040317
:100B5000090409025400030100A0FA09040000017D
:100B60000301010009211101000122440007058150
:100B7000030800010904010001030000000921111C
:100B800001000122B60007058203200001090402CA
:100B900000010300000009211101000122150007D6
:100BA0000583032000011201000200000008091261
:100BB000E5A10800010200010631FF0974A1010945
:100BC00075150026FF00952075088102C0050109F2
:100BD00002A10185020901A10005091901290815D1
:100BE00000250195087501810205010930093115BB
:100BF00081257F95027508810609381581257F9525
:100C00000175088106050C0A38021581257F9501BA
:100C100075088106C0C005010980A101850319017D
:100C20002AB700150126B700950175108100C0058F
:100C30000C0901A101850419012AA002150126A0B1
:100C400002950175108100C005010906A101850604
:100C5000050719E029E715002501950875018102AE
:100C60000507190029EF1500250195F0750181028E
:100C7000050819012905950575019102950175036E
:100C80009101C005010906A101050719E029E71531
:100C900000250195087501810295017508810105FE
:100CA00007190029FF150026FF0095067508810029
:100CB0000508190129051500250195057501910201
:100CC000950175039101C00011241FBECFEFDAE03A
:100CD000DEBFCDBF12E0A0E0B1E0E0EAFAE502C07D
:100CE00005900D92A83CB107D9F723E0A8ECB2E03B
:100CF00001C01D92AF3EB207E1F70E94F2160C94BC
:100D0000B52C7EC9FF93EF93E091C802F091C90220
:100D1000309709F00995EF91FF910895FC018591B5
:100D2000803011F0EFDFFBCF0895FF27E0E230E2E3
:100D300047FF0CC0419597FF09C0EDE260957095A3
:100D400080959095611D711D811D911D27FF02C029
:100D5000219530E350E2AA27660F771F881F991F5D
:100D6000AA1FA41710F0A41B63955A95A9F7AA30DF
:100D700008F0A95FA05DAF93F3956115710581053A
:100D8000910541F7ED3211F4EF93F395F21718F452
:100D90003F93F395FBCF8F91B5DFFA95E1F7089577
:100DA000E991F9918591803021F0853219F0AADF1F
:100DB000F9CF089520E0E89455915532C1F35033AE
:100DC00011F4689455915A3348F4505390F3220F1C
:100DD000022E220F220F200D250FF4CF0EF42195A5
:100DE00089919991533619F3533729F1533559F1B4
:100DF000BC0188279927E8945C3621F48991999160
:100E000068945591543639F446EF7EF077FF0DC063
:100E10008FEF9FEF0AC055374AE039F0583540E16F
:100E200021F0523642E009F00895FF93EF937DDF01
:100E3000EF91FF91B7CFFF93EF93FC018191803049
:100E4000B9F360DFFBCFFF93EF9368DFF1CFDF9360
:100E5000CF93CDB7DEB72596A3DFCF91DF9108956D
:100E60008630C8F46430B8F44B30A8F450E09BE00E
:100E7000699F400D511D11249CE2899F400D511D19
:100E80001124FA01EE0FFF1FE455FF4F8591959154
:100E9000282F822F089521E090E0FBCFE1CF089525
:100EA0009C0191509F31B0F4832F817034FF0AC0B0
:100EB0008295807F31FD806232FD806433FF0BC0FC
:100EC0008068089531FD826032FD846033FF03C085
:100ED0008860089580E00895CF93DF93EB01E0DF11
:100EE000FE010995DF91CF910895CF93DF93EC0137
:100EF000805E9109089720F062E37CE0209711F46E
:100F000063E37AE0CE01E8DF8C2FB4D1DF91CF919B
:100F10000895CF93DF93EC0137D2CE01805E910923
:100F2000089720F067E37CE0209711F468E37AE00B
:100F3000CE01D2DFDF91CF9108950F931F93CF930E
:100F4000DF938C01EB01D1DF209739F4C801E1DF99
:100F5000DF91CF911F910F9108958FE99FE0019745
:100F6000F1F700C000002197EFCF60E570E0893312
:100F7000910511F060E070E0E0CF81E0089581E03C
:100F80000895FBCF089581E0089581E00895FDCF95
:100F9000089508950895FDCF089508950895A6E051
:100FA000B0E0E5EDF7E00C94312C49835A839E8341
:100FB0003091CF0289819A81311117C03E8131155C
:100FC00089F0211579F0A0D5182F682F89819A8191
:100FD0007AD569817A81812F0E94A6132696E3E053
:100FE0000C944D2C81D5182FF4CF8ED569817A8140
:100FF000F3CFFC01262F408151816281738184816E
:101000009581CDCFCF93DF93EC0161E0F2DFBE019C
:10101000B6DF811529F061E0CE01EBDFBE01B1DF63
:10102000DF91CF9108950F931F93CF93DF93EC013E
:1010300060E0DFDF8C01BE01ADDFBE01C801ABDFC8
:10104000DF91CF911F910F9108950F931F93CF932D
:10105000DF93EC0161E0CDDF8C01BE0194DF8111F3
:1010600006C080E0DF91CF911F910F910895BE01DE
:10107000C8018DDF8115A9F3BE01C8010E941717B1
:10108000811579F3BE01C8010E94C720811549F37B
:10109000BE01C8010E94FD1B811519F3BE01C801E4
:1010A0000E94D41B8115E9F2BE01C8010E94A71459
:1010B0008115B9F2BE01C8010E94B914811589F2E7
:1010C000BE01C8010E94D314CDCF21E030E002C0A0
:1010D000220F331F8A95E2F7C90130C4CF93C82F7E
:1010E00081E090E00C2E02C0880F991F0A94E2F76D
:1010F0000E94BD118C2FE9DFCF91089581E0089502
:1011000081E00895FBCF0895CF93C82FC6D38C2FCD
:10111000F7DF8C2FF7DFCF91089581E0F5DF0C9496
:10112000CB2480E0F1DF0C94DC2437DF0E94C9235C
:1011300034C035D033DF0C94CD238295982F990F8E
:10114000990F9C7C869586958373982B892F880FA1
:101150008A7A96959575892B08950F931F93CF934F
:10116000C92FEBDF082F8C2FE8DF902FCF911F9135
:101170000F91089581E008950895CF93DF93D82FBC
:10118000F9DFC82F811511F08D2FF6DF8C2FDF913D
:10119000CF9108950895F1CF089580E0FCCF0E948B
:1011A0001521F9CFCF930E941521C82F8091CA0233
:1011B0008C17F1F0C093CA020E949B246093CB026B
:1011C0007093CC028093CD029093CE0280918C03D9
:1011D0008570853059F41F92CF938CEB92E09F93EA
:1011E0008F9335DE0F900F900F900F908C2FD3DFE1
:1011F000CF910895ADE0B0E0E0E0F9E00C94322C3E
:10120000488759876A877B878C879D8791118DD7FF
:101210001F8286E0FE0138969E012F5F3F4FD90165
:1012200001900D928A95E1F78D8181110CC0298181
:101230003A814B815C816D817E818F81BED62D96F6
:10124000E2E00C944E2CCE010196DCDE8111EFCF52
:10125000F6CFFC012481213019F48081918187C46B
:101260000895611521F00E94591D0C940E1E0E94D4
:10127000991DFBCFCF93C82F8115B9F08238B9F4EF
:101280000E94242181FD11C089E30E94FB22D8D74E
:101290008FEF97EE23E0815090402040E1F700C0AF
:1012A000000089E30E941223CBD7CF9108958338A1
:1012B00099F40E94242180FDF8CF83E50E94FB224F
:1012C000BFD78FEF91EE24E0815090402040E1F7AE
:1012D00000C0000083E5E6CF843899F40E94242101
:1012E00082FDE3CF87E40E94FB22AAD78FEF91EE25
:1012F00024E0815090402040E1F700C0000087E4E6
:10130000D1CF8450813A90F48C2F0E947B1B8111A5
:10131000CCCF8C2F0E945322811521F08C2F0E945C
:1013200012238ED78C2F0E94FB22BECF8C2F805E83
:10133000883048F481E0C1FD84E0C0FD880FC2FD23
:101340008295D1D6B1CF8C2F855A833030F48C2F33
:101350008452990B0E94DF21A8CFEC2FE85AEB3181
:1013600050F4F0E0EE0FFF1FE65EFE4F80819181AA
:101370000E9406229ACF8C2F8D5C833108F095CF86
:1013800061E08C2F6EDF91CF811509F44EC0823859
:1013900061F40E94242181FF48C089E30E94FB225E
:1013A0004FD789E30E9412234BC7833851F40E9420
:1013B000242180FF3AC083E50E94FB2241D783E5C8
:1013C000F1CF843851F40E94242182FF2EC087E49B
:1013D0000E94FB2235D787E4E5CF982F9450913AAD
:1013E00008F3982F905E983050F4982F81E091FD8B
:1013F00084E090FD880F92FD82957BD6D5CF982F03
:10140000955A933020F480E090E00C94DF21982FDF
:10141000985A9B3120F480E090E00C940622982F9B
:101420009D5C933110F460E01CCF08951F93CF931F
:10143000DF93182FEB011EDF209731F4812FA4DFFB
:10144000DF91CF911F9108958FE99FE00197F1F708
:1014500000C000002197F0CF60E570E0893311F003
:1014600060E070E0E3CF811511F03DD6E9C6089544
:10147000811511F03ED6E4C60895A0E0B0E0E3E4A3
:10148000FAE00C942C2C6C01D62FC72FFC0115818F
:10149000068102950F701CD6E82E8115E9F0E12E29
:1014A0001115D1F08C2F807F803461F08D2F805EFC
:1014B0008830E0F08C2F807E803221F4D230B0F082
:1014C0000115A1F08091CA0382FF10C082E0DCD632
:1014D000FFD591E08927E82EEC2FE295EF70C03C14
:1014E00078F5F0E0E954F34D0C941C2CE12CF4CF8A
:1014F0000C2F0F70C03110F00295007F111581F094
:10150000011549F08D2F805E883010F0D11105C093
:10151000802FE9D595D68D2F40C0802FF8D5FACFF2
:101520008D2F32DF011561F08D2F805E883010F035
:10153000D11103C0802FDDD502C0802FEED580D61B
:10154000E11409F4B3C0C0D580FDB0C0F601158226
:10155000B5D524D2C60168D1B1D52ED2A7C08C2F63
:101560008F70F82EC07FC03219F0F29480EFF8220D
:10157000D13038F079F1111509F438C00115C9F0EE
:10158000CACF8091CA0382FD10C0111541F0F11439
:1015900019F08F2DA8D554D680E06CDED1CF80E035
:1015A000F3DEF11469F28F2DC6CF111551F0013021
:1015B00018F48F2D58DFC4CF09F0C2CF8F2DC9D5B5
:1015C000BFCF0111BDCF8F2D53DF8F2DCDD58F2DE7
:1015D000B2D5B6CF111521F0063008F0B1CFE9CF62
:1015E000053008F0ADCF8F2D43DFAACF0115D9F319
:1015F000D93349F48FEF97EE23E08150904020409B
:10160000E1F700C000008D2FBFDE9ACF8C2F8695AA
:1016100086958370813060F009F092CF8D2F9C2FDA
:101620009370111102C080E090E00E94062288CFE2
:101630008D2F9C2F9370111102C080E090E00E94CA
:10164000DF217ECF612F8D2F0CDE7ACF8C2F837020
:10165000C1F5111128C04D2F429546954770440F92
:10166000440F2D2F2F7030E0042E02C0220F331FA5
:101670000A94E2F780E090E0D4FF09C08FE090E0A8
:1016800002C0880F991F4A95E2F780959095C695FC
:10169000C695C370822B932BC23079F0C33079F09A
:1016A000C13049F054D10E94152175DDCDB7DEB7A8
:1016B000E8E00C94482C44D1F6CF50D1F4CF3ED181
:1016C000F2CF111559F1C0FFEECF4D2F429546953F
:1016D0004770440F440F2D2F2F7030E0042E02C0AE
:1016E000220F331F0A94E2F780E090E0D4FF09C094
:1016F0008FE090E002C0880F991F4A95E2F780952D
:101700009095C695C695C370822B932BC23061F01D
:10171000C33061F0C13031F074D1C5CF823008F4EC
:10172000C2CFD3CF67D1BFCF73D1BDCF24D1BBCF71
:10173000CF70111529F08C2F31D18D2F94DEB3CFBE
:101740008D2F96DE8C2F38D1AECFD23F31F168F499
:10175000D03FC1F0D13F89F0111509F43EC0011509
:1017600009F438C08D2F86DD9ECFD33FE1F0D43F02
:1017700099F78091CA0382FD1EC08C2F8F711115BD
:1017800011F30FC0111539F0053008F08CCF8C2FF4
:101790008F7122D188CF0630F8CF8C2F8F71111125
:1017A000D2CFFCD080CF111521F08C2F8F71EDD0CE
:1017B0007ACFE8D078CF111529F063E08C2F8F71A4
:1017C0004CD571CF81E060D5023008F46CCF82E057
:1017D0005BD569CF8C2F8F71E4CF011571F0D933B0
:1017E00049F48FEF97EE23E0815090402040E1F7DD
:1017F00000C000008D2FC8DD56CF8C2F8F71A3CF76
:101800000F931F93CF93DF93EC01688179818D81D2
:10181000B7D18C0104D191D0B801CE012EDEDF9179
:10182000CF911F910F910895CF93DF93EC018C819D
:10183000811581F0CE0109DC81110FC049D48115D9
:1018400049F08D81811531F08091CA0382FF02C079
:1018500082E01AD5DF91CF910895CE01D1DFCE017C
:10186000E2DBF8CF811511F052D4EAC40895811556
:1018700011F053D4E5C4089580E090E00E94DF2188
:1018800080E090E00E94062250D4DAD40E94C61E66
:101890000C940E1E0E942923EFCF36D4FBCF282FA5
:1018A00092959F70963099F060F4925F9F7092309D
:1018B00030F4203FB1F038F481E0283E38F080E089
:1018C00008959A5FF3CF81E0243FC9F7089591E02E
:1018D000813F09F090E081E0283E08F080E0892B0C
:1018E000089581E00895FC012481211521F0808173
:1018F00091813DD1D4CF80E00895A6E0B0E0E3E847
:10190000FCE00C94322C2696E2E00C944E2CA7E0DE
:10191000B0E0EDE8FCE00C94322C2796E2E00C9469
:101920004E2C0895FECF0895FDCF0895FADFFCDF19
:101930008093EA029093EB0208950895F7CF0895FB
:101940002091EA023091EB02822B932BEFCF209172
:10195000EA023091EB0282239323E8CF2091EA023E
:101960003091EB0282279327E1CFDBCF0895FDCFA3
:101970000895D7CF0895FDDFFADF8093E8029093B2
:10198000E902089580E090E0F6CF21E030E002C067
:10199000220F331F8A95E2F7C901EDCF21E030E035
:1019A00002C0220F331F8A95E2F78091E8029091DE
:1019B000E902822B932BDFCF21E030E002C0220F1F
:1019C000331F8A95E2F7209530958091E802909137
:1019D000E90282239323CFCF21E030E002C0220F1F
:1019E000331F8A95E2F78091E8029091E9028227FD
:1019F0009327C1CF2091E8023091E902822B932BEB
:101A0000BACF2091E8023091E90282239323B3CF29
:101A10002091E8023091E90282279327ACCF089504
:101A2000CF93C1E061FDC4E060FDCC0F62FDC295C3
:101A300093E0769567959A95E1F7660F771F660FA5
:101A4000771F460F571FFA0140E050E090E0619188
:101A5000DF019C01042E02C0369527950A94E2F717
:101A60002695220B26272C2326272E934F5F5F4F88
:101A70004430510561F7CF910895A82FA77023E056
:101A8000969587952A95E1F7880F991F880F991FDA
:101A9000680F791FFB0140E050E080E0219130E0C9
:101AA0000A2E02C0369527950A94E2F72170042E7B
:101AB00001C0220F0A94EAF7822B4F5F5F4F443038
:101AC000510561F70895262F943068F48B3058F44F
:101AD000682F70E08BE0989F600D711D112440ED20
:101AE00052E0822F9DCF0895292F943058F48B30E7
:101AF00048F490E060ED72E03BE0239F800D911D83
:101B00001124BBCF80E00895CF92DF92FF920F9314
:101B10001F93CF93DF936C010091E8021091E902CB
:101B20008091EA029091EB02082B192BCFE0D0E0D4
:101B300081E090E00C2E02C0880F991F0A94E2F712
:101B400080239123892B61F4219790F7F12C8F2D1D
:101B5000DF91CF911F910F91FF90DF90CF9008956B
:101B6000FC2EB6018C2FFDD5019771F3F0CFCF93EA
:101B7000DF93EC01C9DFBE01F4D5DF91CF91089569
:101B80001F93CF93DF93EB019091CF02911531F02A
:101B9000CB01EDDFDF91CF911F910895811551F0B9
:101BA000CB01B2DF182F682FCE018DDFBE01812F50
:101BB000D8D5F0CFCB0198DF182FF8CF0F931F9314
:101BC0000091EC028091ED02801303C01F910F91F0
:101BD000089587E0089FF0011124E251FD4F208114
:101BE00031814281538164817581868190DE0F5FEE
:101BF0001F4F0770E7CF20912603309127034091B4
:101C000028035091290360912A0370912B0380913E
:101C10002C037DCE80912C03803170F480912B03B6
:101C2000811551F0E091EC022091ED0230912703F3
:101C3000409126032E1301C00895BF0187E0E89F5D
:101C4000F0011124DF01A251BD4F14968C9114971D
:101C5000811549F111968C911197831324C08C91B1
:101C6000841321C015968C91159781111CC0129672
:101C70008D919D91A0912803B09129038A1B9B0B04
:101C8000883C910580F480912C038F708061809353
:101C90002C03EC50FD4F80818F708061808386E241
:101CA00093E0C2DD8BCF6F5F7F4FFB01E770C2CF48
:101CB000E091EC029091ED02E91302C080E00895FA
:101CC0009F0157E0E59FF0011124E251FD4F518142
:101CD000561306C05081581303C05581541305C0D4
:101CE0002F5F3F4FF901E770E7CF81E008958F92B2
:101CF0009F92AF92BF92DF92EF92FF920F931F934A
:101D0000CF93DF93CDB7DEB72D970FB6F894DEBF34
:101D10000FBECDBF8C0186E0F801DE011896019060
:101D20000D928A95E1F7F801F580848196E2892E7B
:101D300093E0992E90912A03911117C0811509F40F
:101D4000EFC0F11409F42EC1C801CDDD811509F4ED
:101D500029C187E0F801D40101900D928A95E1F73D
:101D6000C40177DA57DF47DFDBC0E080A280B380B1
:101D7000D0902B032091280330912903A501421B09
:101D8000530BD11409F4CFC0483C510508F09EC054
:101D9000811509F4C5C090912703918080912C038F
:101DA000803108F065C0991226C0909126039E11DB
:101DB00022C0F11057C08F70806180932C031BDF0D
:101DC00086E293E031DD80912C03F8018683F12CCB
:101DD0008F2D2D960FB6F894DEBF0FBECDBFDF91CD
:101DE000CF911F910F91FF90EF90DF90BF90AF9038
:101DF0009F908F900895F11035C040E0692D8E2D91
:101E000057DF40E0692D8E2D53DFF82E8111DFCF93
:101E100088859985ACDE292F22952F70903450F457
:101E20009F70223078F0911591F0F80196819031F1
:101E300070F4CECF2A5F2F70223070F0C801F4DC2E
:101E4000FD2CC6CF911519F0811509F4C1CF805E24
:101E5000883008F4BDCFF2CF803F08F4B9CF815F5E
:101E60008330F7CF80912C03816080932C03AFCF18
:101E7000991207C0909126039E1103C0F11409F432
:101E800073C0C80130DD811509F48CC0F11409F468
:101E900089C080912C03803280F0209126033091FC
:101EA000270329833A83AB82BC8290912A039D83C6
:101EB0001E828F83CE010196B7DC87E0F801A6E28F
:101EC000B3E001900D928A95E1F74CCF90912C03ED
:101ED000903188F4488559856A857B858C859D85F8
:101EE0000CDD86E293E0A0DCF40187E011928A9594
:101EF000E9F781DE6CCF811599F02091270381816C
:101F00002813BFCF809126038E11BBCFF110B9CF1C
:101F10009683C80189DCF40187E011928A95E9F77C
:101F2000FF24F39455CF483C510508F03EC081157D
:101F3000B9F3F114B9F1909127038181981329C065
:101F4000809126038E1125C080912C0380FD18C03E
:101F50008031B0F08683807F803F39F08681982F72
:101F6000907F905F8F70892B8683C8015DDC87E04E
:101F7000F801A6E2B3E001900D928A95E1F7F3CE65
:101F800087E0F801A6E2B3E001900D928A95E1F7AF
:101F9000C7CFC801A8DC811190CF80912C0381604C
:101FA00080932C03C80140DCBBCF488559856A85E6
:101FB0007B858C859D85A1DC97CFAEE0B0E0E3EE1C
:101FC000FFE00C94312C288739874A875B876C8720
:101FD0007D878E87CE0108968ADE6C85811599F003
:101FE000611539F0288539854A855B857D858E8523
:101FF0008EDC8091EC029091ED0289133DC02E960B
:10200000E3E00C944D2C87E09E01285F3F4FF901DF
:1020100027503109D90101900D928A95E1F7611598
:1020200041F3A091ED028A2F90E08395877090E0B4
:10203000AC012091EC022417150691F097E09A9FCD
:10204000D0011124A251BD4F9E012F5F3F4FF901D6
:1020500001900D929A95E1F74093ED02AFDDC9CF63
:102060001CDC1092ED021092EC02E6E2F3E087E055
:1020700011928A95E9F7BDCF17E0189FC00111248E
:1020800082519D4F34DE811509F4B9CFE091EC0205
:102090001E9FF0011124E251FD4F208131814281C8
:1020A000538164817581868132DC8091EC0290914C
:1020B000ED02019687708093EC029BCF80915503CF
:1020C0008695869586950895809155038770089525
:1020D00090915503977081E0911101C080E00895BF
:1020E00080918103089590918103982B90938103AF
:1020F00008958095982F809181038923809381038F
:10210000089580938103089510928103089590911A
:102110008003982B9093800308958095982F809149
:10212000800389238093800308951092800308958B
:102130000895FECF089590915603292F282329F062
:102140008095892380935603F4CF08950895FECF98
:10215000089590915703292F2823281721F0982BB1
:1021600090935703F4CF089590915703292F282374
:1021700029F08095892380935703E9CF08958091B2
:102180005703811521F01092570380E0E0CF0895A6
:10219000CF93C091810380918003C82B8091570316
:1021A000811529F0C82B0E942D228111E8DF8C2F88
:1021B000CF910895CF93DF93C0910201D091030195
:1021C000E7DF8883C0910201D091030148E050E02D
:1021D0006DE473E0CE010E946D2C892B59F088E0EC
:1021E000FE01ADE4B3E001900D928A95E1F7CE01D6
:1021F0000E942621DF91CF910895CF93DF93C09164
:102200000001D0910101C4DF8983C0910001D09108
:10221000010140E250E06DE273E0CE010E946D2CBE
:10222000892B59F080E2FE01ADE2B3E001900D92FE
:102230008A95E1F7CE010E947621DF91CF91089532
:102240000E940E21811529F08091C90387FF01C0EA
:10225000D4CFB0CF0895FECF08959091CA0392FFD6
:102260000EC0982F990F990F990F962B90935503A5
:1022700095DB80915503869586958695ECCF8ECB20
:102280001092550380E0E7CF909155038095892304
:1022900080935503282F277059F4891749F090919E
:1022A000CA0392FF05C086958695869585DBE8CFA3
:1022B0000895CF93C82F8091CA0382FB992790F984
:1022C0009C17C9F0C0FB82F98093CA0389EC93E0A4
:1022D00058D082E0D9DF80918C0380FF0CC01F9220
:1022E000CF938CEC92E09F938F930E9427070F90DF
:1022F0000F900F900F90CF9108958091CA03002402
:1023000082FF0394802DD5CF81E0D3CF80E0D1CF61
:1023100080E090E0BC01DAC380E090E0BC01D0D363
:10232000F7CFA4E0B0E0E7E9F1E10C94322C70D3F0
:102330007BD31C82CE0104968ED381E090E0809303
:10234000EA021092EB0293D3198284E18A83CE01D0
:1023500001969ED31B82CE010396ACD3DDDF24967B
:10236000E2E00C944E2CDDCF089564C3089551C370
:10237000089566C3089575C3089579C308957CC30D
:10238000089586C308958BC3089594C30895A4C384
:102390000895A6E0B0E0EFECF1E10C94302C0E943F
:1023A0008F248C0180918203909183038017910781
:1023B00079F019821A820E948F24BC0149815A81C6
:1023C00080E090E00E94FA08009382031093830358
:1023D0002696E4E00C944C2C0E949B246093880386
:1023E0007093890380938A0390938B036093840393
:1023F00070938503809386039093870308950895CF
:102400000895FDCF08950895FEDFFBCF0895FECF18
:1024100008950895FEDFFBCF88E896E2F6D4F0DF5A
:10242000F3CF81E0089581E00895FBCF08950895EA
:1024300008950895FCDFFCDFFCCF99DF811101C016
:1024400092DF8CE893E095DF89EC93E098DF93DFEF
:1024500075DA8091E8029091E90289CA0E94862487
:102460003AD4EBDF0E940C210E94CA0828D5D2CFB3
:10247000A6E0B0E0EEE3F2E10C94262CD4DF81116B
:102480000BC087DF0E940D210E94E71E0E94D20828
:102490002696EEE00C94422C2DD421EC822E23E0E3
:1024A000922E740110E0F701C080D180812F1FD3DC
:1024B0001F5F143009F450C022E0E20EF11CC81670
:1024C000D90689F380918C0381FD1AD3AEDF682E83
:1024D00010E0812F0CD37C01F401A190B1904F0149
:1024E0008A159B0599F1A826BF2400E091E0C92E2A
:1024F000D12CC5018C219D21892B01F17724739466
:10250000C7018C219D21892B09F4712C611489F05C
:10251000602F812F0E94F12381110BC009831A8340
:102520000E948F24BC0149815A8181E0972D0E942D
:10253000FA08472D602F812F0E9408240F5FCC0CD2
:10254000DD1C0B30B1F6F401F292E2921F5F143001
:1025500009F0BFCF41DF96CFC816D90609F0B2CF38
:1025600090CF0F931F93CF93DF93FDD0EC01D23523
:1025700008F050C0D03508F0C8C0C03ED10530F5D5
:10258000CD3CD10508F09DC0C83AD10578F4C53AD4
:10259000D10508F093C0C130D105B1F1CE01049747
:1025A000813A910588F1C0E0D0E02EC0CE01885A72
:1025B00091094B97C0F7C85AD0E0CC0FDD1FC05B24
:1025C000DE4F0990D881C02DD4641EC0D034A8F449
:1025D000D03208F0ADC0C83ED105B0F0CE01915068
:1025E0009F3108F78D2F62D1082F8C2F90E0BBD040
:1025F000D02FDF71C82FD92B07C08C2F90E0B3D01C
:10260000DF70C82FD92BD06ACE01DF91CF911F91F7
:102610000F910895C03882E5D807B8F5C03682E535
:10262000D80708F056C0C03482E5D807C8F4C032D5
:1026300082E5D80708F047C08C2F8695869520E262
:10264000829FC0011124C37021E030E002C0220F3C
:10265000331FCA95E2F7E901C82BD92BDD68D4CF27
:102660008C2F86958695877020E2829FC001112469
:10267000C37021E030E002C0220F331FCA95E2F799
:10268000E901C82BD92BDC68BFCFC03C82E5D80755
:1026900050F48C2F8F71C03AD24580F5982F84EF7B
:1026A000906AEC01B1CFCE01805C9245809708F032
:1026B0007ACFDC2FDF71C0EFD06AA6CFA497D064A9
:1026C000A3CFD065A1CF8C2F8F71D82FC1EFD06A47
:1026D0009BCF8C2F86958695877020E2829FC001C4
:1026E0001124C37021E030E002C0220F331FCA95CD
:1026F000E2F7E901C82BD92BDA6886CFD7D0982F1B
:1027000080E09F71EC01D0627FCF8C2F8F71CED093
:1027100053E0CC0FDD1F5A95E1F7DF70282F84FFBF
:1027200004C090E1899F90011124C22FD0696CCF21
:102730008D2F8F71BBD0082F8C2F90E014D0302FAD
:102740003F71282F392B3062E9015ECF462F74305C
:1027500028F46B3018F4672F0C944E0780E090E05B
:102760000895F4DFFECE803E9105D1F1C8F48133A7
:10277000910509F481C048F48932910509F471C0CA
:102780008A32910509F47FC0089589339105E1F0FB
:1027900082389105C9F08533910509F45DC008952B
:1027A000843E9105D1F148F4823E910531F1833E9A
:1027B000910541F181EE90E00895863E9105C1F1C9
:1027C000873E9105F1F108952091C903237009F026
:1027D00064C02091CA0323FF14C089E290E00895E9
:1027E0002091C90320FD45C03091CA0330FF09C0C4
:1027F00024FD24C083EE90E008952091C90322FDBA
:10280000F7CF08952091C90322FD44C03091CA0337
:1028100030FD43C024FFF5CF11C02091CA0321FF32
:10282000F0CF8091C90384FD09C087EE90E0089540
:102830002091C90323FFE5CF24FFF7CF80E090E08C
:1028400008952091C90323FD2BC03091CA0331FFA5
:10285000E1CF84EE90E008952091C90325FFD1CF08
:10286000BCCF2091C90325FD1EC02091CA0323FFC0
:10287000C8CF89E390E008952091C90326FFC1CF16
:102880008AE290E008952091C90326FFBACF81E340
:1028900090E0089582EE90E0089580EE90E0089533
:1028A00086EE90E0089585E390E008959091C90345
:1028B00092FF10C041E0282F2471243009F040E03D
:1028C00031E0282F2871283009F030E0431711F04B
:1028D0002CE0822793FF10C041E0282F247124317F
:1028E00009F040E031E0282F2871283109F030E06C
:1028F000431711F02CE082273091CA0330FF10C03B
:1029000051E0282F2171213009F050E041E0282FBB
:102910002871283009F040E0541711F029E082278F
:1029200031FF10C041E0282F2171213109F040E032
:1029300031E0282F2871283109F030E0431711F0D9
:1029400029E0822794FF02C083FD877E0895CF93FC
:102950009C01205E3245C1E02032310538F4FB0194
:10296000C581C11103C08F710E946E088C2FCF9159
:1029700008959C01FB018581811599F02B359CE719
:10298000390769F02C359CE7390721F02A353C4797
:1029900021F00895B2DC80E00895B6DCFCCFB6DC0F
:1029A000FACF81E00895FB012581211579F182306C
:1029B0003CE79307A9F048F481153CE7930761F0E1
:1029C00081309C4731F0822F089583309C47D9F79E
:1029D000CCDC0E94910802C00E948D0820E0F3CF59
:1029E00090918C03892F8E7F90FF816080938C0360
:1029F00080FF09C083EF92E09F938F930E94270787
:102A00000F900F90EBCF81EE92E0F6CF21E0DBCF7D
:102A1000089580E090E00E94822C9C0181E0233E9A
:102A20003E4F09F080E0089563EE7EEF80E090E095
:102A30000C94A12C6FEF7FEF80E090E00C94A12C20
:102A4000CF93DF93EC0182E090E00E947A2C8883A0
:102A5000DF91CF910895FC01608182E090E00C94B9
:102A6000872C83E090E00E947A2C90E00895682FF4
:102A700083E090E00C94872CCF93DF93EC0184E00B
:102A800090E00E94822C88839983DF91CF910895F2
:102A9000FC016081718184E090E00C94A12CCF93C3
:102AA000DF93EC018CE090E00E947A2C8883DF9128
:102AB000CF910895FC0160818CE090E00C94872C0C
:102AC000AB01BC018FE090E00C94992CAB01BC01F0
:102AD00083E190E00C94992C682F8EE090E00C94A8
:102AE000872C0895FECF08950895FECF0895E82F0E
:102AF000F0E0EE0FFF1FED52FC4F808191810895B1
:102B0000A0E0B0E0E6E8F5E10C942C2C84E193E041
:102B10009F938F930E94270783EDC82E83E0D82EC2
:102B20000F900F90E12CF12C06E013E0FF92EF9252
:102B30008FE093E09F938F930E9427078CE093E0B0
:102B40009F938F930E942707F601819191916F01C6
:102B50000E94AD089F938F931F930F930E942707A6
:102B600084E093E09F938F930E9427078FEFE81AEA
:102B7000F80A8DB79EB70C960FB6F8949EBF0FBE9D
:102B80008DBF84E0E816F10489F6E8E00C94482C47
:102B900080EA8A95F1F7089500C00895F9CF089565
:102BA000F894E82FE295EF70F0E041A18F7021E0FA
:102BB00001C0220F8A95EAF7922F9095942391A352
:102BC00092A1822F892B82A378940895CF93DF93CB
:102BD000C1E9D1E089918F3F09F0E2DF81E0C53999
:102BE000D807C1F7C6E8D1E089918F3F09F0D8DF57
:102BF00081E0C139D807C1F7DF91CF910895AF9235
:102C0000BF92DF92EF92FF920F931F93CF93DF93C8
:102C10005C01D62EC62FD0E08E010F561E4FF80154
:102C200080818F3F09F44BC0F894E82FE295EF7054
:102C3000F0E091A18F7021E001C0220F8A95EAF7A0
:102C4000892F822B81A382A12095282322A3789407
:102C5000A3DFE6E8F1E021E030E0E12CF12C419146
:102C60004F3F79F0A42FA295AF70A05EB0E08C9199
:102C700090E04F7002C0959587954A95E2F780FFE6
:102C800028C080E090E0E82AF92A220F331F81E073
:102C9000E139F80721F7F80180818F3F09F080DFE3
:102CA00061E0E114F10409F460E08D2D77DFCC0FD1
:102CB000DD1FC5018C0F9D1FEC01E882F982DF91B9
:102CC000CF911F910F91FF90EF90DF90BF90AF9049
:102CD0000895C901D8CF7ADFE3EDF3E088E01192DF
:102CE0008A95E9F7EBECF3E088E011928A95E9F731
:102CF0003CD0F8CEA8E0B0E0E0E8F6E10C942F2C50
:102D0000FE013196DF0188E01D928A95E9F710E017
:102D10000E2FFF2E612F802F9F2D71DF812F8F5F50
:102D2000182F8430B9F748E050E0602F7F2D8BECEE
:102D300093E00E946D2C41E0892B69F440E063ED43
:102D400073E08BEC93E012D0182FCFDE812F289602
:102D5000E5E00C944B2C88E0E02FFF2DABECB3E0CA
:102D600001900D928A95E1F7EACF0895EF92FF92D4
:102D70000F931F93CF93DF938C017B01C42F4115D9
:102D800079F081E080938F030E948F2480938D03DC
:102D900090938E0380E0CDB7DEB7E6E00C944A2C2A
:102DA000D0918F03D115B1F380918D0390918E0353
:102DB0000E942024059770F348E050E0B801C70155
:102DC0000E946D2C892B41F088E0F801D701019019
:102DD0000D928A95E1F7CD2F10928F038C2FDBCFC8
:102DE00047CB08950E9429240E94E92615DB0E9402
:102DF000012734DB0E940A270E940D27F1DF0E9481
:102E00002F270E942C2516DBF7CF8093C8029093C2
:102E1000C9020895FB012581211539F097FF05C0EE
:102E20009F77BC0180E090E03AD181E008950F9354
:102E30001F93CF93DF93EC018B01FB0185818115FB
:102E400079F04ED98272FE01E053FC47E830F1057B
:102E500038F4ED53F34D0C941C2C811559F066D0C9
:102E6000B801CE01D7DFDF91CF911F910F91089567
:102E70008115A9F35AD0F4CF80E03AD0F1CF81E0A8
:102E8000FCCF82E0FACF83E0F8CF84E0F6CF85E094
:102E9000F4CF9091DC03923069F48A3048F4875F74
:102EA00090E06AE070E00E94092C875A0C942C0A8A
:102EB0008650FCCF0C9457200895FECF08958CEDDA
:102EC00093E061DA8091DC03F8DF80918C0380FF6E
:102ED0000EC08091DC031F928F938AE493E09F934E
:102EE0008F930E9427070F900F900F900F900895D7
:102EF000CF93C82F8093DC038CED93E046DA8C2FC0
:102F0000DCDF80918C0380FF0EC08091DC031F9278
:102F10008F938BE293E09F938F930E9427070F90EC
:102F20000F900F900F90CF910895089508950E94EB
:102F300024218093DB039091DC03913029F481FFFD
:102F400003C089E30E942C0ACBD88093DD03DCD830
:102F5000ECD88091DC038230B9F030F481110FC0DD
:102F600082EE0E943A0904C0843011F1853029F1C3
:102F70008FE39CE90197F1F700C00000089588E114
:102F800093E00E94B507F4CF8091DB0380FD03C07E
:102F900083E50E942C0A82EE0E943A098FE39CE9A5
:102FA0000197F1F700C0000087E50E942C0AE0CFEE
:102FB00086EE0E942C0A88E1F8CF8BE191E00E9416
:102FC000B50785E290E00E94B50788E290E0D9CF8E
:102FD0008091DC038230C9F030F481110BC082EEA5
:102FE0000E94C40904C08430C9F08530C9F08091C2
:102FF000DD0387C88CE20E942C0A8091DB0381FFED
:10300000F6CF89E30E942C0AF2CF82EE0E94C40917
:103010008091DB0380FDEBCF83E5F4CF88E2F2CF34
:1030200088E290E00E94B507E2CFA0E0B0E0EBE1DB
:10303000F8E10C942A2C5B016C01D091DC038CE14B
:10304000E82EF12C07E010E021E0C501D6010E2C9E
:1030500004C0B695A795979587950A94D2F7C82F7F
:10306000CF70211531F0D43041F4CA3030F080E017
:1030700010DF8C2F0EDF20E005C0C111FACF043025
:103080001105BCF30150110984E0E81AF1080F3F63
:103090001007D9F6CDB7DEB7EAE00C94462CCF92F4
:1030A000DF92EF92FF926B017C0181E1E816F1045F
:1030B00038F40E2C0F2849F08091DC03823049F45B
:1030C000FF90EF90DF90CF90089531DFB601C701F8
:1030D00021C02DDF8091DC038111F8CF81E0E81A57
:1030E000F1088D2D9E2DAF2DB0E0A6959795879573
:1030F000A695979587959852AF4FBF4FBC01CD01CC
:1031000094DF83E0D822E12CF12CB601C701745280
:103110008F4F9F4F8ADF5CDFD3CFA0E0B0E0E3E9C1
:10312000F8E10C94322C809104011F928F938091CE
:1031300005011F928F93809108011F928F938091B8
:1031400009011F928F9380910A011F928F938091A2
:103150000B011F928F938AE693E09F938F930E94B7
:1031600027078DB79EB70E960FB6F8949EBF0FBE79
:103170008DBFE2E00C944E2CCF93C82F1F928F93FB
:1031800084E095E09F938F930E94270781E090E071
:1031900002C0880F991FCA95E2F70E949E0C0E94F8
:1031A0004D0C0F900F900F900F90CF910895A0E0CD
:1031B000B0E0EDEDF8E10C94322C893209F470C0E6
:1031C00010F5833109F483C040F4873009F4DFC07F
:1031D0008B3051F189EC94E0EEC0843109F460C089
:1031E000982F9E519A30B0F78D518093940384307C
:1031F00009F077C088E091E0809392039093930365
:103200008BEB91E093C0803509F4DAC030F4883359
:1032100059F08F34F9F68AE0D4C0813509F4E7C05B
:103220008235C1F681E0CDC08EEE94E09F938F93FE
:103230000E94270772DF1F9281E08F931F9288E020
:103240008F9387EE93E09F938F930E9427078DB70C
:103250009EB708960FB6F8949EBF0FBE8DBF8091A3
:103260009403811509F4CCC020919003309191030F
:103270002115310511F425E931E03F932F931F9279
:103280008F9387EB94E09F938F930E9427070F9073
:103290000F900F900F900F900F90E2E00C944E2C37
:1032A0008BEE94E09F938F930E9427070F900F90CF
:1032B00080919403811589F31092940310929203E4
:1032C000109293031092900310929103C8CF8DED4A
:1032D00094E09F938F930E9427071FDF0F900F901A
:1032E000BECF68F48230C1F18330C1F489E091E04F
:1032F00080939203909393038EEA91E017C08530F8
:10330000A1F18630D9F1109294038AED94E09F9355
:103310008F930E9427070F900F900CC08BE091E0D5
:10332000809392039093930389E991E080939003B3
:103330009093910380919403811509F490CF1F928B
:103340008F9386ED94E09F938F930E9427070F90B1
:103350000F900F900F9083CF8AE091E080939203BB
:103360009093930382EA91E0E1CF85E091E080932E
:103370009203909393038AEC91E0D8CF84E091E09C
:1033800080939203909393038DED91E0CFCF81E0F2
:1033900080930B0184E180930A018AE08093090104
:1033A0008EE18093080188E08093050188E2809394
:1033B00004018CEC94E09F938F930E9427078ECF9B
:1033C00086EFE0919203F09193033097B1F0208162
:1033D000982F990F990B820F911D913054F497FDFE
:1033E0000AC080831F928F9383EC94E0ACCF8FEF61
:1033F000E8CF8FEFF6CF80E0F4CF80EC94E0DBCF26
:1034000083EB94E09F938F930E9427070F900F9078
:1034100044CFA3E0B0E0EFE0FAE10C942B2CE82FCE
:10342000E550EF3308F059C1F0E0E553F34D0C944B
:103430001C2C0E94BB111F921F929F938F9384EBB1
:1034400098E09F938F930E942707CE0103960E94D6
:10345000B9118B8183FB882780F91F928F938B8111
:1034600082FB882780F91F928F938B8186958170CC
:103470001F928F938B8181701F928F938B811F92EC
:103480008F938BE698E09F938F930E942707CE013E
:1034900001960E94BF118A8183FB882780F91F92C1
:1034A0008F93898187FB882780F91F928F93898169
:1034B00086FB882780F91F928F93898185FB882757
:1034C00080F91F928F938981829581701F928F93CB
:1034D000898183FB882780F91F928F93898182FBE2
:1034E000882780F91F928F938A81869581701F9219
:1034F0008F938A8181701F928F93898186958170C5
:103500001F928F93898181701F928F938A818F93ED
:1035100089818F938CE697E09F938F930E94270772
:103520008DB79EB78C960FB6F8949EBF0FBE8DBF19
:1035300081E02396E9E00C94472C85E799E09F937E
:103540008F930E9427070E94B3110F900F90F0CF26
:1035500087EB95E09F938F930E942707F6CF80918A
:103560008C03807F80938C0380E995E09F938F93F9
:103570000E94270781E799E09F938F930E94270776
:1035800081E0809395030F900F900F900F90D0CF14
:1035900085E599E09F938F930E9427070E948D08ED
:1035A000D4CF90918C03892F8E7F90FF8160809380
:1035B0008C0380FF03C089E499E0CCCF8CE399E0D1
:1035C0009F938F930E94270780918C03817F809324
:1035D0008C03BBCF90918C03892F8D7F91FF8260EC
:1035E00080938C0381FF0AC08FE299E09F938F93B1
:1035F0000E94270780918C038160E9CF81E299E0E6
:10360000A9CF90918C03892F8B7F92FF8460809348
:103610008C0382FF03C082E199E0E8CF82E099E069
:1036200099CF90918C03892F877F93FF8860809337
:103630008C0383FF03C086EF98E0D8CF89EE98E033
:1036400089CF82EF91E09F938F938DE895E09F93D0
:103650008F930E94270797CF0E949B24E62ED72E98
:10366000C82EB92E1091C90317FB112710F90E941B
:10367000C423082F0E94A823F82ED7D5BF92CF923B
:10368000DF92EF921F921F931F920F931F92FF9250
:103690001F928F9389E095E09F938F930E94270755
:1036A0008DB79EB70E963FCF0E944D0C9091C903E7
:1036B000892F97FB87F980588093C90387FF03C040
:1036C0008FED98E047CF84ED98E044CF80E054DD63
:1036D0002FCF8953FCCF8D51FACF82ED98E09F9385
:1036E0008F930E9427070F900F9080E022CF80E0F9
:1036F000089580E00895CF93C82F8091950381307D
:1037000091F0823009F448C081114AC00E947010C3
:10371000823209F047C08C2FEADF811102C08C2F62
:1037200078DECF9108950E9470108232A1F38C2F21
:10373000E0DF811124C0C43121F168F4CB3079F08D
:10374000C03121F18EEF94E09F938F930E94270761
:103750000F900F9018C0C932A1F0C83399F780E9D3
:1037600095E09F938F930E94270780E095E09F93B9
:103770008F930E9427070F900F900F900F9081E07A
:1037800003C01092950380E08170CBCF82E08093DC
:10379000950388E30CDDF3CF8C2F09DD81E0C1CFE9
:1037A0001092950380E0BDCFCF93DF93EB0186317C
:1037B0009C4709F50E9470109D81911599F08A7AB5
:1037C00091E0811101C090E090939603811541F042
:1037D00085E311D70E94201180E0DF91CF910895F9
:1037E00089E2F7CF80919603811519F085E31AD706
:1037F000F1CF89E2FCCF81E0F0CFCF93DF93EC01F2
:10380000FB018581811509F4CBC09E01305723321D
:10381000310508F0ABC089EC93E00E94BF11FE01B6
:10382000E150F047E232F10520F4E65FF24D0C94EE
:103830001C2C8091C90381608093C90390C0809142
:10384000CA0388608093CA038AC08091C9038260DA
:10385000F3CF8091C9038460EFCF8091C903886062
:10386000EBCF8091CA038160EDCF8091CA03826063
:10387000E9CF8091C9038061DFCF8091C903806265
:10388000DBCF8091C9038064D7CF0E944D0C80911B
:10389000C9038068D1CF8091C9038C60CDCF80915E
:1038A000CA038360CFCF8091C9038E7FC5CF80913B
:1038B000CA03877FC7CF8091C9038D7FBDCF809119
:1038C000C9038B7FB9CF8091C903877FB5CF809122
:1038D000CA038E7FB7CF8091CA038D7FB3CF80910B
:1038E000C9038F7EA9CF8091C9038F7DA5CF809119
:1038F000C9038F7BA1CF0E944D0C8091C9038F77A4
:103900009BCF8091C903837F97CF8091CA038C7F1F
:1039100099CF9091C903892F8B7F92FF8460877F15
:1039200092FF886089CF8091CA03982F909590FB71
:1039300080F990FB81F986CF9091C903892F8F7B05
:1039400096FF806479CF0E944D0C9091C903892F16
:1039500097FB87F9805870CF81E00E94C71189ECEE
:1039600093E00E94C1110E944D0C80E0DF91CF9145
:10397000089580E0F2CF9091C903892F8F7E94FF44
:1039800080615ACF9091C903892F8E7F90FF81600B
:1039900053CF9091CA03892F877F93FF886052CFBE
:1039A00081E0E4CF382F25EB3203C001112497FFCB
:1039B00004C080589109892F089580589F4FFBCFEC
:1039C00080919D0380FF0DC06091090170E0660F3A
:1039D000771F6038710588F56115710581F1862FB3
:1039E000089581FF07C06091090184E0689FB001DC
:1039F0001124EFCF82FF04C06091090188E0F6CF67
:103A000090919C039115B9F0609108018091090192
:103A1000961728F098E0899FB0011124DACF899F8A
:103A2000C001112423E0880F991F2A95E1F770E067
:103A30000E94092CCECF68E0D2CF8FE7089581E0B5
:103A4000089580919D0380FF0CC06091050170E096
:103A500075956795759567956115710541F1862F87
:103A6000089581FF06C06091050170E07595679526
:103A7000F3CF6091050182FD0BC090919B039115DE
:103A8000A1F06091040180910501961738F0682F2C
:103A900070E06038710500F38FE70895899FC001D9
:103AA000112470E00E94092CF4CF61E0D8CF81E0AE
:103AB0000895E82FED5CE33198F5F0E0E45DF24D18
:103AC0000C941C2C7DDF81958093A103089578DFF1
:103AD000FBCF76DF81958093A003089571DFFBCF44
:103AE000B0DF8093A2030895ACDF8195FACFA9DF00
:103AF00081958093A3030895A4DFFBCF815D990B8B
:103B000021E001C0220F8A95EAF780919F03822B62
:103B100080939F03089580919D03816080939D030E
:103B2000089580919D038260F9CF80919D03846008
:103B3000F5CF4091A0038D3C59F48091A10387FFFC
:103B40000DC01092A103411559F410929C0308C0B6
:103B50008E3C81F48091A10318169CF3411581F0ED
:103B60008091A2039091A303892B09F056C0109273
:103B70009B0308958F3C41F447FFF0CF1092A003C0
:103B80008091A1038115E0CF803D19F41416B4F3A0
:103B9000E5CF9091A203893D29F41916FCF6109205
:103BA000A203DCCF8A3D19F497FFD8CFF8CF9091CC
:103BB000A3038B3D29F497FFD1CF1092A303CECF5F
:103BC0008C3D19F41916CCF3C9CF982F915D98301C
:103BD00078F4815D990B21E001C0220F8A95EAF704
:103BE000822F809590919F03892380939F03B6CF66
:103BF0008D3D31F480919D038E7F80939D03AECFE8
:103C00008E3D21F480919D038D7FF7CF8F3D09F08C
:103C1000A5CF80919D038B7FF0CF0895A0E0B0E009
:103C2000E4E1FEE10C94322C80918C0383FF92C07E
:103C30008DEA99E09F938F930E94270780919F03BD
:103C40001F928F9388EA99E09F938F930E94270792
:103C500086EA99E09F938F930E9427078091A003A3
:103C6000982F990F990B9F938F9383EA99E09F93D5
:103C70008F930E94270781EA99E09F938F930E9478
:103C800027078091A103982F990F990B9F938F93EA
:103C90008EE999E09F938F930E9427078CE999E022
:103CA0009F938F930E9427078091A203982F990FCB
:103CB000990B9F938F9389E999E09F938F930E942B
:103CC000270787E999E09F938F930E9427078091A8
:103CD000A303982F990F990B9F938F9384E999E0F1
:103CE0009F938F930E94270781E999E09F938F9379
:103CF0000E9427078DB79EB780960FB6F8949EBF97
:103D00000FBE8DBF80919C031F928F938EE899E028
:103D10009F938F930E9427078CE899E09F938F933E
:103D20000E94270780919D031F928F9389E899E055
:103D30009F938F930E94270786E899E09F938F9324
:103D40000E9427078DB79EB70C960FB6F8949EBFBA
:103D50000FBE8DBFE4D59C019091A0038091A1037B
:103D6000982B21F02093990330939A039091A2030A
:103D70008091A303982B21F020939703309398030D
:103D80008EE993E00AD3E2E00C944E2CEEE9F3E0E6
:103D900086E011928A95E9F710929C0310929B039A
:103DA00010929D030895FC01828181110EC08381D0
:103DB00081110BC08481811108C091E0858181113E
:103DC00001C090E0892F8170089581E0FCCFA6E0CA
:103DD000B0E0EDEEFEE10C942F2C86E0EEE9F3E08E
:103DE0009E012F5F3F4FD90101900D928A95E1F717
:103DF0001092A0031092A1031092A2031092A303A9
:103E00008B819C81892B022FF32E811581F080916B
:103E1000990390919A0314D5AC0190919C0391154C
:103E2000A1F180910A018417150608F43BC08D8129
:103E30009E81892B89F0809197039091980300D5FA
:103E4000AC0190919B03911509F45AC08091060131
:103E50008417150608F462C0602F7F2D8EE993E069
:103E600010D4811104C08EE993E09DDF8111D6DE6C
:103E700086E0E02FFF2DAEE9B3E001900D928A9528
:103E8000E1F72696E5E00C944B2C20910B018AE09B
:103E9000289F900111242417350748F69F5F9093BF
:103EA0009C0302C09F3FD1F71B81111551F088DDA3
:103EB00091E011160CF09FEF899F802D11248093C3
:103EC000A0031C81111551F07BDD91E011160CF05F
:103ED0009FEF899F802D11248093A1038091A003DF
:103EE000811509F4A4CF1091A103111509F49FCFF6
:103EF00059DD8093A003812F55DD8093A10397CFD7
:103F0000209107018AE0289F90011124241735078A
:103F100008F0A2CF9F5F90939B0302C09F3FD1F711
:103F20001D81111551F08DDD91E011160CF09FEF00
:103F3000899F802D11248093A2038E81182F8115D3
:103F400051F07FDD91E011160CF09FEF899F802DDD
:103F500011248093A3038091A203811509F47CCFDF
:103F60009091A303192F911509F476CF1BDD80934F
:103F7000A203812F17DD8093A3036ECFA0E0B0E0F2
:103F8000E4ECFFE10C942B2CE82FF0E0E053F64F2B
:103F90009491B92E282F26952695269530E0F90183
:103FA000E059F54FE4908770F12C082E02C0F5948B
:103FB000E7940A94E2F7F901E05AF54FC490D12C46
:103FC000082E02C0D594C7940A94E2F7205B354FBF
:103FD000F901049110E002C0159507958A95E2F762
:103FE000C62FD0E0E0FC25C0C0FE06C086EE0E94D1
:103FF0003A09CE01009759F5BE018B2D0E94160A91
:10400000CE01009761F5C0FC32C0E0FE06C081EE33
:104010000E94C409CE010097C1F500FF05C08CE2E3
:104020000E942C0A2097C9F5CDB7DEB7E9E00C94C1
:10403000472C81EE0E943A09CE010097A9F2EFE9E0
:10404000FFE03197F1F700C000000197F6CFEFE9EC
:10405000FFE03197F1F700C000000197CBCFEFE907
:10406000FFE03197F1F700C000000197CACF86EE5C
:104070000E94C409CE01009741F2EFE9FFE03197B9
:10408000F1F700C000000197F6CFEFE9FFE03197AC
:10409000F1F700C000000197BECF8FE99FE00197C4
:1040A000F1F700C000002197BDCF60E067CF982FE7
:1040B0009F709A50963010F0805DF7CF895AFDCFEF
:1040C0000F931F93CF93DF93C42FD22FFC018581D1
:1040D0008115C9F04093A60322D48093A403909342
:1040E000A5038C2F805E883048F481E0C1FD84E018
:1040F000C0FD880FC2FD82950E94330ADF91CF91E7
:104100001F910F9108951091A603141333C080914D
:10411000A4039091A50394D3883C910558F5CD2F25
:10412000C05E1D17C1F0812F805E883048F481E0A9
:1041300011FD84E010FD880F12FD82950E94380A5F
:10414000C83048F481E0D1FD84E0D0FD880FD2FD75
:1041500082950E94330A802F0E942C0A81E0D1FDB3
:1041600084E0D0FD880FD2FD8295C83038F60E94D9
:10417000380AC4CF8C2F805E883008F0BFCF81E032
:10418000C1FD84E0C0FD880FC2FD8295F0CF0F9382
:10419000FC01CB01E851FC47E730F10588F5E15C13
:1041A000F24D0C941C2C06E221EE41EE6AE17CE714
:1041B00087DF80E00F91089507E225EE45EE6BE181
:1041C0007CE7F6CF06E221EE40EE68E17CE7F0CF37
:1041D00007E225EE44EE69E17CE7EACF06E221EE54
:1041E00042EE6CE17CE7E4CF07E225EE46EE6DE1BE
:1041F0007CE7DECF08E221E045EE6EE17CE7D8CF38
:10420000FB01858181111092A60381E0D3CF8093B9
:10421000AB039093AC0308950895089599D2982F15
:1042200081E0913009F080E00895E091AB03F091D6
:10423000AC03309739F00190F081E02D309711F008
:104240000995089580E00895F0CF0895EF92FF92C8
:104250000F931F93CF93DF93EC01E091AB03F091A9
:10426000AC033097F1F10280F381E02D3097C9F172
:10427000099580918C0382FF34C080FF0DC0888136
:104280001F928F9385EA9AE09F938F930E9427074E
:104290000F900F900F900F907E0186E0E80EF11CBA
:1042A0000FE91AE080918C0380FF0BC08A811F9276
:1042B0008F931F930F930E9427070F900F900F90DB
:1042C0000F902196CE15DF0569F780918C0380FF52
:1042D00008C08DE99AE09F938F930E9427070F9063
:1042E0000F90CDB7DEB7E6E00C944A2CEF92FF9228
:1042F0000F931F93CF93DF93EC01E091AB03F09109
:10430000AC03309709F444C084819581892B09F46A
:104310003FC086E088830480F581E02DCE010995B9
:1043200080918C0382FF34C080FF0DC089811F9271
:104330008F9388E89AE09F938F930E9427070F90AE
:104340000F900F900F907E018EE1E80EF11C02E8B5
:104350001AE080918C0380FF0BC08A811F928F939B
:104360001F930F930E9427070F900F900F900F90AD
:104370002196CE15DF0569F780918C0380FF08C078
:1043800080E89AE09F938F930E9427070F900F90E9
:10439000CDB7DEB7E6E00C944A2CE091AB03F09188
:1043A000AC03309759F026813781232B39F022E076
:1043B000DC012C930680F781E02D09950895A3E098
:1043C000B0E0E5EEF1E20C94322C2091A90330919B
:1043D000AA0328173907B1F08093A9039093AA0381
:1043E000E091AB03F091AC03309761F00084F1856C
:1043F000E02D309739F023E029838A839B83CE0117
:10440000019609952396E2E00C944E2CA3E0B0E0CF
:10441000ECE0F2E20C94322C2091A7033091A80337
:1044200028173907B1F08093A7039093A803E09170
:10443000AB03F091AC03309761F00084F185E02D7F
:10444000309739F024E029838A839B83CE0101963B
:1044500009952396E2E00C944E2CCF93DF93C09104
:104460000201D0910301DADE811521F08091C903A8
:1044700087FD11C09E012E5F3F4F96E080E0915076
:10448000F90140812F5F3F4F41118F5F9111F7CFAD
:10449000DF91CF91089520910001309101012E5FAD
:1044A0003F4F9EE1EBCFCF93C82F811102C080E038
:1044B0002EC0B4DE811521F08091C90387FD0FC0A5
:1044C0008091020190910301FC01329608962081AF
:1044D0002C17F9F03196E817F907C9F7E8CF8C2FB8
:1044E000869586958695C03F10F7E0910001F09182
:1044F0000101E80FF11D228130E0C77081E001C0A9
:10450000880FCA95EAF7282381E0232B81F2CF9107
:10451000089581E0FCCF9C01FC01329680E09FEF82
:104520004081461759F031969F3F19F4411101C05F
:10453000982F8F5F8630A1F79F3F09F40895290FC8
:10454000311D97FD3A95F90162830895FC01329679
:1045500008962191261302C0DF011E92E817F90781
:10456000C1F70895262F269526952695603F68F475
:10457000820F911DFC01677021E001C0220F6A9536
:10458000EAF78281822B8283089580918C0380FFD9
:104590000CC01F926F938CED9AE09F938F930E94B3
:1045A00027070F900F900F900F900895262F2695B4
:1045B00026952695603F70F4820F911DFC019DEFBA
:1045C00061FD97EF60FF959562FD92958281892349
:1045D0008283089580918C0380FF0CC01F926F939B
:1045E0008EEB9AE09F938F930E9427070F900F9076
:1045F0000F900F900895CF93C82F10DE6C2F811568
:1046000059F08091C90387FF07C080910001909104
:104610000101A8DFCF9108958091020190910301DB
:104620007ADFF8CFCF93C82FF9DD6C2F811559F0C1
:104630008091C90387FF07C080910001909101011B
:10464000B5DFCF91089580910201909103017EDF43
:10465000F8CFE4DD811571F08091C90387FF0AC0AE
:10466000E0910001F091010132968EE111928A955C
:10467000E9F70895E0910201F0910301329686E096
:10468000F5CFDC01FB0111969C9111978181981364
:1046900022C012968C911297811519F0928189137C
:1046A0001AC013968C911397811519F09381891371
:1046B00012C015968C911597811519F09581891363
:1046C0000AC014969C91911521F081E02481291350
:1046D00003C080E001C081E0817008950895FECF9D
:1046E00008958F5F80930F0160910C0170910D010F
:1046F00080910E0190910F01F2CF83E080930F0122
:1047000060910C0170910D0180910E0190910F014B
:10471000E6CFE7CF089581E080930F0160910C010F
:1047200070910D0180910E0190910F01D8CFF3CFC0
:10473000089591E0811101C090E090930E01609185
:104740000C0170910D0180910E0190910F01C7CF66
:1047500080910E01089580930D0160910C0170917C
:104760000D0180910E0190910F01B9CF80910D0143
:10477000089580930C0160910C0170910D0180915E
:104780000E0190910F01ABCF80910C010895089517
:104790000895FECF089508950895F9CF08950F93D1
:1047A0001F93CF93DF93F7DF0E947A16F5DF0DEAB0
:1047B00013E0C0E0D0E08C2F0E9477159C01F80137
:1047C000819331938F0191E0232B09F490E0D92B51
:1047D000CF5FC43081F78D2FDF91CF911F910F9163
:1047E0000895E82FF0E0EE0FFF1FE355FC4F81E046
:1047F00090E002C0880F991F6A95E2F7BC018081A2
:1048000091816823792381E0672B09F480E0089582
:10481000411115C0E82FF0E0EE0FFF1FE355FC4FEC
:1048200081E090E002C0880F991F6A95E2F78095B9
:1048300090952081318182239323808391830895F1
:10484000CF93DF93EC016BD08C1B9D0BDF91CF914D
:10485000089585B7806885BF85B7806885BF08954E
:104860001F921FB61F9211248F939F93AF93BF93F4
:104870008091B503811113C08091DE039091DF0315
:10488000A091E003B091E1034196A11DB11D809379
:10489000DE039093DF03A093E003B093E103BF91A5
:1048A000AF919F918F911F901FBE1F90189580917F
:1048B000E603843031F10E9495081092B50388E137
:1048C00090E020E40FB6F894A895809360000FBEA6
:1048D0002093600083B7817F846083BF83B781604A
:1048E00083BF7894889583B78E7F83BF0FB6F89483
:1048F000A8958091600088618093600010926000AC
:104900000FBE08950E944D0C0C94990882E084BD5E
:1049100093E095BD9AEF97BD80936E0008952FB7F1
:10492000F8948091DE039091DF03A091E003B091B1
:10493000E1032FBF08952FB7F8946091DE037091C3
:10494000DF038091E0039091E1032FBF08957894F5
:104950001F921FB61F9211248F939F93AF93BF9303
:104960008091DE039091DF03A091E003B091E10319
:104970000196A11DB11D8093DE039093DF03A093E8
:10498000E003B093E103BF91AF919F918F911F908E
:104990001FBE1F90189587E797E7809300089093B4
:1049A000010888E19AE00FB6F894A895809360001A
:1049B0000FBE90936000FFCF88E19AE00FB6F894A5
:1049C000A895809360000FBE90936000FFCF9B017D
:1049D000BA019091E6039430D9F48F708093E90086
:1049E0009FEF8091E80085FD06C085ED8A95F1F77F
:1049F00000009150B1F78091E80085FF09C040E0C8
:104A000050E0C901A0D28091E8008E778093E80041
:104A1000089543E050E0BC0182E0D9CF46E050E089
:104A2000BC0182E0D4CF40E250E0BC0182E0CFCFB5
:104A3000CF93DF93EC018CDE48E050E0BE0181E0D3
:104A4000C6DF88E0FE01A9EBB3E001900D928A95E4
:104A5000E1F7DF91CF910895089580E29BE09F9365
:104A60008F930E9427078091E5030F900F9081118B
:104A700007C0F7D347D48091E20084608093E200BE
:104A800008958CE19BE09F938F930E9427071092DB
:104A9000E5030F900F90089588E19BE09F938F931B
:104AA0000E94270738DE81E044DE0F900F900895C2
:104AB000A0E0B0E0EDE5F5E2D5C684E19BE09F9390
:104AC0008F930E9427076091E20381E0611101C08A
:104AD00080E013DE0F900F90E2E0E0C6A0E0B0E0CF
:104AE000E3E7F5E2BFC680E19BE09F938F930E94CE
:104AF00027079091E60381E0943009F080E060910F
:104B0000E20307DE0F900F90E2E0C8C62091B703E2
:104B10002F5F822F62E371D6911519F02093B703AE
:104B200008951092B7038091B8038115E9F0809140
:104B3000E6038430B9F49091E9008091EC009F7015
:104B400080FB882787F9892B93E09093E900909167
:104B5000EB0090FF04C09091EE0097FD08C08F70AD
:104B60008093E9001092B80308951092F10090919B
:104B7000E80095FDFACF9091E80090FFF0CF90917A
:104B8000E8009E779093E800EACF42E061EC81E094
:104B9000E4D242E261EC82E0E0D242E261EC83E006
:104BA000DCD29091E60381E0943009F080E06091DE
:104BB000E20397CD8091E803893081F148F4823097
:104BC00009F496C0833009F457C0813041F008954C
:104BD0008A3009F480C08B3009F468C00895809150
:104BE000E703813A09F047C08091E800877F80930E
:104BF000E8008091EB039091EC03892B59F060E081
:104C000080E090E070E0ECD18091E8008B778093B9
:104C1000E800089568E089EB93E0F4CF8091E70322
:104C2000813249F58091EB039091EC03029718F5DE
:104C30008091E800877F8093E8008091E80082FF00
:104C400016C02091F3008091F200922F029731F468
:104C50008091F100813011F0863019F48091F100DB
:104C60007ADD8091E8008B778093E800AAC280917A
:104C7000E6038111E2CF08958091E703813AD9F7E5
:104C80008091EB039091EC03892BA9F78091E800C8
:104C9000877F8093E8008091E80080FFFCCF58DD9B
:104CA0008093F1008091E8008E77DECF8091E7035A
:104CB000813209F78091EB039091EC03892BD9F6AF
:104CC0008091E800877F8093E8007BD28091E903A0
:104CD00030DD0C944D0C8091E703813261F68091B8
:104CE000E800877F8093E8006CD28091EA0341CD91
:104CF0008091E703813A09F0BECF8091E800877F79
:104D00008093E8008091E80080FFFCCF3DDDC8CFB4
:104D10009FB7F8941092B8039FBF9091E603943028
:104D200009F047C02091E9009091EC002F7090FBB2
:104D3000992797F9922B23E02093E9002091EB002B
:104D400020FF34C02091EE0027FF30C02091B60331
:104D5000211521F02091E80025FF28C01092B6030C
:104D600026E03091E80035FF14C08093F100809177
:104D7000E80085FD27C08091E80080FFFCCF80918E
:104D8000E8008E778093E8009F709093E90080E0C0
:104D900008953091E603343049F43091EB0035FD4D
:104DA00005C0215041F481E08093B6039F70909339
:104DB000E9008FEF0895EFE9FFE03197F1F700C0C8
:104DC0000000CFCF8FB7F89421E02093B8038FBFB6
:104DD000DBCF84B7877F84BF0FB6F894A895809106
:104DE0006000886180936000109260000FBE80E8D0
:104DF00090E00FB6F89480936100909361000FBE2D
:104E000096CC2FD27FD2E2EEF0E080818460808366
:104E10007894DAC480E191E0FAC98091E6038530A4
:104E200089F480918C0380FF08C08AEF9AE09F93F9
:104E30008F930E9427070F900F908091E603853093
:104E400011F060CD089533DDAADC8115B1F38091B6
:104E5000E403811591F361D00E944D0CEECF0895CB
:104E60009A014091ED035091EE0300C0492F50E0AC
:104E700043305105D1F078F44130510509F448C070
:104E80004230510571F484E590E042E55BE0F901C0
:104E900040835183089541325105E9F04232510572
:104EA00039F180E090E040E0F2CF482F50E08130CF
:104EB00061F04230510561F0EEE4FBE0411551052F
:104EC00081F7849190E0AF01E2CFE4E3FBE0F9CF1A
:104ED000E4E2FBE0F6CF6330710518F7660F771F49
:104EE000FB01EE53FD4F4081518189E090E0CFCF2F
:104EF00063307105B0F6FB01EE0FFF1FE454FD4F68
:104F00004081518167547D4FFB01808190E0BFCF8C
:104F100082E190E046EA5BE0BACF80E189BD82E1C0
:104F200089BD09B400FEFDCF8091D8008F7D8093AC
:104F3000D8008091E00082608093E0008091E000E2
:104F400081FDFCCF0895AF92BF92CF92DF92FF9286
:104F50000F931F93CF93DF936C01EB018A0150D124
:104F6000F82E811123C00115110539F0F801808157
:104F70009181C81BD90BC80ED91EA12CB12C20972A
:104F8000A9F08091E80085FD21C08091E8008E772E
:104F90008093E80001151105A1F0F801808191814D
:104FA0008A0D9B1D8083918385E0F82E8F2DDF91E4
:104FB000CF911F910F91FF90DF90CF90BF90AF9056
:104FC00008951ED18115E9F2F82EF0CFF6018191F6
:104FD0006F018093F10021978FEFA81AB80ACFCF05
:104FE000FC012091ED033091EE032617370720F0E6
:104FF0006115710569F09B0190E02115310571F48F
:1050000091110CC08091E80082FF38C080E00895C3
:105010009091E8009E779093E800EDCF8091E603B1
:105020008115C1F18530C1F18091E80083FD30C068
:105030008091E80082FDE6CF8091E80080FFDDCF1F
:105040008091F3004091F200582F2115310519F09D
:105050004830510558F091E04830510509F090E092
:105060004091E8004E774093E800C7CF819180934C
:10507000F100215031094F5F5F4FE7CF8091E60388
:10508000811541F0853041F08091E80083FFBACF6F
:1050900081E0089582E0089583E00895FC01209165
:1050A000ED033091EE032617370720F061157105E7
:1050B00069F09B0190E02115310571F491110CC04C
:1050C0008091E80082FF39C080E008958091E80077
:1050D0008E778093E800EDCF8091E6038115C9F1CA
:1050E0008530C9F18091E80083FD31C08091E800EE
:1050F00082FDE6CF8091E80080FFDDCF8091F30054
:105100004091F200582F2115310519F04830510512
:1051100058F091E04830510509F090E08091E800A6
:105120008E778093E800C7CF84918093F100319609
:10513000215031094F5F5F4FE6CF8091E603811523
:1051400041F0853041F08091E80083FFB9CF81E0E4
:10515000089582E0089583E00895982F973028F00D
:105160008F708093E90081E008959093E900242FE7
:10517000762F50E0981731F07091EC002091ED00FF
:105180005091F00021FD02C09F5FE8CF3091EB000D
:105190003E7F3093EB003091ED003D7F3093ED008A
:1051A0003091EB0031603093EB007093EC00209372
:1051B000ED005093F0002091EE0027FDE5CF80E058
:1051C00008958091E70387FF13C08091E80082FF74
:1051D00006C08091E8008B778093E8000895809165
:1051E000E6038111F2CF08958091E6038115D9F38A
:1051F0008091E80080FFF8CF8091E8008E77ECCFB7
:105200002091E4003091E50095E6A9012091EC00A1
:10521000822F817020FF06C08091E80080FF06C0C9
:1052200080E008952091E80022FD1AC08091E603F5
:10523000811589F0853089F08091EB0085FD0FC0E4
:105240002091E4003091E50042175307F9F29150A4
:10525000E1F684E0089582E0089583E0089581E016
:1052600008955FD066D0E0EEF0E0808181608083B9
:10527000E8ED80818F77808319BCA7EDB0E08C9139
:105280008E7F8C9380818F7E80831092E5030895BA
:10529000CF93DF9346D04DD0C8EDD0E088818F7793
:1052A000888388818068888388818F7D888319BC02
:1052B0001092E6031092E2031092E4031092E303CB
:1052C000E0EEF0E080818B7F80838881816088833D
:1052D00042E060E080E041DFE1EEF0E080818E7F3F
:1052E0008083E2EE8081816080838081886080831A
:1052F000E0EE80818E7F8083888180618883DF916A
:10530000CF910895E8EDF0E080818F7E8083E7ED16
:1053100080818160808384E082BF81E08093E503A7
:10532000B7CFE8EDF0E080818E7F80831092E200BD
:1053300008951092DA001092E10008951F920F92E2
:105340000FB60F9211242F933F934F935F936F9358
:105350007F938F939F93AF93BF93EF93FF9380912E
:10536000E10082FF0AC08091E20082FF06C08091C6
:10537000E1008B7F8093E100C9DB8091DA0080FF40
:1053800018C08091D80080FF14C08091DA008E7F11
:105390008093DA008091D90080FF8FC080E189BDC1
:1053A00082E189BD09B400FEFDCF81E08093E60370
:1053B00054DB8091E10080FF18C08091E20080FF03
:1053C00014C08091E2008E7F8093E2008091E20021
:1053D00080618093E2008091D80080628093D80041
:1053E00019BC85E08093E60363DB8091E10084FFD4
:1053F00028C08091E20084FF24C080E189BD82E161
:1054000089BD09B400FEFDCF8091D8008F7D8093C7
:10541000D8008091E1008F7E8093E1008091E200CE
:105420008F7E8093E2008091E20081608093E200B1
:105430008091E203811509F445C084E08093E6037E
:105440004DDB8091E10083FF27C08091E20083FF64
:1054500023C08091E100877F8093E10082E0809308
:10546000E6031092E2038091E1008E7F8093E100D9
:105470008091E2008E7F8093E2008091E200806163
:105480008093E20042E060E080E067DE8091F0001F
:1054900088608093F00000DBFF91EF91BF91AF91A6
:1054A0009F918F917F916F915F914F913F912F913C
:1054B0000F900FBE0F901F90189519BC1092E60325
:1054C000E0DA77CF8091E30087FF02C083E0B6CFB8
:1054D00081E0B4CF1F920F920FB60F9211241F9349
:1054E0002F933F934F935F936F937F938F939F93EC
:1054F000AF93BF93CF93DF93EF93FF93E9EEF0E089
:1055000080811091EC008F7010FB112717F9182B78
:105510001082C0EFD0E08881877F888378941CD088
:10552000E9EEF0E010828881886088831F70108324
:10553000FF91EF91DF91CF91BF91AF919F918F91AB
:105540007F916F915F914F913F912F911F910F909C
:105550000FBE0F901F901895AAE2B0E0E1EBFAE2BF
:1055600080C187EE93E0FC0101962091F100208339
:1055700023E08F3E9207B9F71DDB8091E80083FF9F
:1055800037C08091E7039091E8039A3088F5E92FBE
:10559000F0E0EA5BF24D50C1803889F0823841F585
:1055A0008091EB038F70873018F58093E90080912C
:1055B000EB0085FB882780F91092E90006C08091F6
:1055C000E403880F9091E303892B9091E800977F83
:1055D0009093E8008093F1001092F1008091E80030
:1055E0008E7722C0811115C08091E903813001F1CD
:1055F0008091E80083FF0AC08091E800877F809354
:10560000E8008091EB0080628093EB00AA96E3E0D3
:1056100044C1823069F78091E903811579F01092D5
:10562000E9008091E800877F8093E800CADDE0CF41
:10563000933009F080E08093E403F1CF8091EB0395
:105640008F70282F2150263098F68093E900209102
:10565000EB0020FFE4CF933031F48091EB008062C7
:105660008093EB00DCCF9091EB0090619093EB0086
:1056700021E001C0220F8A95EAF72093EA001092F8
:10568000EA008091EB008860EBCF8111B1CF80916F
:10569000E9038F77182F8091E3008078812B809326
:1056A000E3008091E800877F8093E8008ADD8091A5
:1056B000E80080FFFCCF8091E30080688093E300E6
:1056C00083E0111101C082E08093E60391CF8058FE
:1056D000823008F08DCF8091E9039091EA038C3DF0
:1056E00023E0920789F583E08A838AE289834FB7B2
:1056F000F894DE01139620E03EE051E2E32FF0E063
:1057000050935700849120FF03C082958F703F5FB4
:105710008F708A30B8F0895C8D931D922F5F243191
:1057200069F74FBF8091E800877F8093E8006AE2C5
:1057300070E0CE01019654DC8091E8008B77809375
:10574000E80056CF805DE8CF6091EB037091EC03E9
:10575000AE014F5F5F4F84DBBC01892B09F448CF5A
:105760009091E800977F9093E80089819A8196DC78
:10577000E3CF803809F03CCF8091E800877F8093A9
:10578000E8008091E2038093F10028CF811130CFAF
:105790009091E903923008F02BCF8091E800877F49
:1057A0008093E8009093E2030CDD8091E203811581
:1057B00029F084E08093E603E8D91ACF8091E300D2
:1057C00087FDF7CF81E0F6CFCF938091E603811577
:1057D00091F08091E900C091EC008F70C0FBCC2764
:1057E000C7F9C82B1092E9008091E80083FDB4DE70
:1057F000CF70C093E900CF910895992778E0880F82
:10580000991F961708F0961B881F7A95C9F78095FF
:10581000089597FB072E16F4009406D077FD08D064
:1058200048D007FC05D03EF4909581959F4F089590
:10583000709561957F4F0895EE0FFF1F0590F491CD
:10584000E02D09942F923F924F925F926F927F9238
:105850008F929F92AF92BF92CF92DF92EF92FF9280
:105860000F931F93CF93DF93CDB7DEB7CA1BDB0B2C
:105870000FB6F894DEBF0FBECDBF09942A883988D1
:1058800048885F846E847D848C849B84AA84B984D8
:10589000C884DF80EE80FD800C811B81AA81B981E4
:1058A000CE0FD11D0FB6F894DEBF0FBECDBFED01F8
:1058B0000895AA1BBB1B51E107C0AA1FBB1FA61757
:1058C000B70710F0A61BB70B881F991F5A95A9F7A9
:1058D00080959095BC01CD010895FB01DC0104C0C9
:1058E0008D910190801921F441505040C8F7881BD8
:1058F000990B0895F999FECF92BD81BDF89A992729
:1059000080B50895A8E1B0E042E050E020C0262F25
:10591000F999FECF92BD81BDF89A019700B40216A5
:1059200039F01FBA20BD0FB6F894FA9AF99A0FBE53
:1059300008950396272FECDFEADF252FE9DF242FD8
:10594000E7CF0196272FE4DFE2CFDC01CB01FC019A
:10595000F999FECF06C0F2BDE1BDF89A319600B4C8
:105960000D9241505040B8F70895F894FFCF780A4F
:10597000780AAF0AAF0A060B220BA00AA00A260B70
:10598000980BA50BA50B2D1738173C173F17411780
:10599000431745174717C81AAF1AD11A191A6D1BA2
:1059A0006D1BA81A6D1B6D1B011B6D1B111B541B5E
:1059B0006D1B6D1B6D1B6D1B2C1B6D1B6D1B211B34
:1059C0006D1BEA1A6D1B6D1B6B1B6B1B6B1B6B1B23
:1059D0006B1B6B1B6B1B6B1B6B1B661B6D1BC81A3E
:1059E0009D1A6D1B6D1B6D1B6D1B6D1B6D1B6D1B48
:1059F0006D1B6D1B6D1B661B6D1B6D1BA81A6D1B34
:105A0000691B691B691B691B691B691B691B691B76
:105A1000691B661B531CC21C5B1C251C291C5F1CBC
:105A20002D1C631C6F1C391CBB1C3D1C731C411CB2
:105A3000771C9C1C451C7B1CA31C4B1C811C891CBB
:105A4000311C671C351C6B1C4F1C851C931CAC1C2B
:105A5000B91C1F1C571CC91C621D671D691D6E1DCA
:105A60007E1D7E1D7E1D7E1D7E1D7E1D7E1D7E1D5E
:105A7000701D741D771D7C1D8B1D911D951DE220D1
:105A8000E820D320DC20EE20F420FA20CC2AF22AD1
:105A9000F82AF22AF82A452B672BF82AB92BC62BAD
:105AA00058037803280850011E0A14010000010061
:105AB000B623182513250E250925E200E900EA0082
:105AC000B500B600B700CD008301CC008A01920179
:105AD00094012102230224022502260227022A021F
